###############################################################################
#                                                                             #
# IAR ELF Linker V6.60.2.5449/W32 for ARM               06/Mar/2017  22:18:59 #
# Copyright 2007-2013 IAR Systems AB.                                         #
#                                                                             #
#    Output file  =  D:\NTU\Sem 2\Embedded OS\TEST\ce4053_source_code\ce4053\ #
#                    Micrium\Software\EvalBoards\TI\LM3S9B92-EVALBOT\IAR\uCOS #
#                    -III-CE4053_PG\Flash\Exe\uCOS-III-Ex4.out                #
#    Map file     =  D:\NTU\Sem 2\Embedded OS\TEST\ce4053_source_code\ce4053\ #
#                    Micrium\Software\EvalBoards\TI\LM3S9B92-EVALBOT\IAR\uCOS #
#                    -III-CE4053_PG\Flash\List\uCOS-III-Ex4.map               #
#    Command line =  "D:\NTU\Sem 2\Embedded OS\TEST\ce4053_source_code\ce4053 #
#                    \Micrium\Software\EvalBoards\TI\LM3S9B92-EVALBOT\IAR\uCO #
#                    S-III-CE4053_PG\Flash\Obj\adc.o" "D:\NTU\Sem 2\Embedded  #
#                    OS\TEST\ce4053_source_code\ce4053\Micrium\Software\EvalB #
#                    oards\TI\LM3S9B92-EVALBOT\IAR\uCOS-III-CE4053_PG\Flash\O #
#                    bj\app.o" "D:\NTU\Sem 2\Embedded                         #
#                    OS\TEST\ce4053_source_code\ce4053\Micrium\Software\EvalB #
#                    oards\TI\LM3S9B92-EVALBOT\IAR\uCOS-III-CE4053_PG\Flash\O #
#                    bj\app_vect.o" "D:\NTU\Sem 2\Embedded                    #
#                    OS\TEST\ce4053_source_code\ce4053\Micrium\Software\EvalB #
#                    oards\TI\LM3S9B92-EVALBOT\IAR\uCOS-III-CE4053_PG\Flash\O #
#                    bj\bsp.o" "D:\NTU\Sem 2\Embedded                         #
#                    OS\TEST\ce4053_source_code\ce4053\Micrium\Software\EvalB #
#                    oards\TI\LM3S9B92-EVALBOT\IAR\uCOS-III-CE4053_PG\Flash\O #
#                    bj\bsp_dac.o" "D:\NTU\Sem 2\Embedded                     #
#                    OS\TEST\ce4053_source_code\ce4053\Micrium\Software\EvalB #
#                    oards\TI\LM3S9B92-EVALBOT\IAR\uCOS-III-CE4053_PG\Flash\O #
#                    bj\bsp_display.o" "D:\NTU\Sem 2\Embedded                 #
#                    OS\TEST\ce4053_source_code\ce4053\Micrium\Software\EvalB #
#                    oards\TI\LM3S9B92-EVALBOT\IAR\uCOS-III-CE4053_PG\Flash\O #
#                    bj\bsp_int.o" "D:\NTU\Sem 2\Embedded                     #
#                    OS\TEST\ce4053_source_code\ce4053\Micrium\Software\EvalB #
#                    oards\TI\LM3S9B92-EVALBOT\IAR\uCOS-III-CE4053_PG\Flash\O #
#                    bj\bsp_io.o" "D:\NTU\Sem 2\Embedded                      #
#                    OS\TEST\ce4053_source_code\ce4053\Micrium\Software\EvalB #
#                    oards\TI\LM3S9B92-EVALBOT\IAR\uCOS-III-CE4053_PG\Flash\O #
#                    bj\bsp_motor.o" "D:\NTU\Sem 2\Embedded                   #
#                    OS\TEST\ce4053_source_code\ce4053\Micrium\Software\EvalB #
#                    oards\TI\LM3S9B92-EVALBOT\IAR\uCOS-III-CE4053_PG\Flash\O #
#                    bj\bsp_sensors.o" "D:\NTU\Sem 2\Embedded                 #
#                    OS\TEST\ce4053_source_code\ce4053\Micrium\Software\EvalB #
#                    oards\TI\LM3S9B92-EVALBOT\IAR\uCOS-III-CE4053_PG\Flash\O #
#                    bj\can.o" "D:\NTU\Sem 2\Embedded                         #
#                    OS\TEST\ce4053_source_code\ce4053\Micrium\Software\EvalB #
#                    oards\TI\LM3S9B92-EVALBOT\IAR\uCOS-III-CE4053_PG\Flash\O #
#                    bj\comp.o" "D:\NTU\Sem 2\Embedded                        #
#                    OS\TEST\ce4053_source_code\ce4053\Micrium\Software\EvalB #
#                    oards\TI\LM3S9B92-EVALBOT\IAR\uCOS-III-CE4053_PG\Flash\O #
#                    bj\cpu_.o" "D:\NTU\Sem 2\Embedded                        #
#                    OS\TEST\ce4053_source_code\ce4053\Micrium\Software\EvalB #
#                    oards\TI\LM3S9B92-EVALBOT\IAR\uCOS-III-CE4053_PG\Flash\O #
#                    bj\cpu_a.o" "D:\NTU\Sem 2\Embedded                       #
#                    OS\TEST\ce4053_source_code\ce4053\Micrium\Software\EvalB #
#                    oards\TI\LM3S9B92-EVALBOT\IAR\uCOS-III-CE4053_PG\Flash\O #
#                    bj\cpu_bsp.o" "D:\NTU\Sem 2\Embedded                     #
#                    OS\TEST\ce4053_source_code\ce4053\Micrium\Software\EvalB #
#                    oards\TI\LM3S9B92-EVALBOT\IAR\uCOS-III-CE4053_PG\Flash\O #
#                    bj\cpu_c.o" "D:\NTU\Sem 2\Embedded                       #
#                    OS\TEST\ce4053_source_code\ce4053\Micrium\Software\EvalB #
#                    oards\TI\LM3S9B92-EVALBOT\IAR\uCOS-III-CE4053_PG\Flash\O #
#                    bj\cpu_core.o" "D:\NTU\Sem 2\Embedded                    #
#                    OS\TEST\ce4053_source_code\ce4053\Micrium\Software\EvalB #
#                    oards\TI\LM3S9B92-EVALBOT\IAR\uCOS-III-CE4053_PG\Flash\O #
#                    bj\epi.o" "D:\NTU\Sem 2\Embedded                         #
#                    OS\TEST\ce4053_source_code\ce4053\Micrium\Software\EvalB #
#                    oards\TI\LM3S9B92-EVALBOT\IAR\uCOS-III-CE4053_PG\Flash\O #
#                    bj\ethernet.o" "D:\NTU\Sem 2\Embedded                    #
#                    OS\TEST\ce4053_source_code\ce4053\Micrium\Software\EvalB #
#                    oards\TI\LM3S9B92-EVALBOT\IAR\uCOS-III-CE4053_PG\Flash\O #
#                    bj\fatfs.o" "D:\NTU\Sem 2\Embedded                       #
#                    OS\TEST\ce4053_source_code\ce4053\Micrium\Software\EvalB #
#                    oards\TI\LM3S9B92-EVALBOT\IAR\uCOS-III-CE4053_PG\Flash\O #
#                    bj\flash.o" "D:\NTU\Sem 2\Embedded                       #
#                    OS\TEST\ce4053_source_code\ce4053\Micrium\Software\EvalB #
#                    oards\TI\LM3S9B92-EVALBOT\IAR\uCOS-III-CE4053_PG\Flash\O #
#                    bj\gpio.o" "D:\NTU\Sem 2\Embedded                        #
#                    OS\TEST\ce4053_source_code\ce4053\Micrium\Software\EvalB #
#                    oards\TI\LM3S9B92-EVALBOT\IAR\uCOS-III-CE4053_PG\Flash\O #
#                    bj\hibernate.o" "D:\NTU\Sem 2\Embedded                   #
#                    OS\TEST\ce4053_source_code\ce4053\Micrium\Software\EvalB #
#                    oards\TI\LM3S9B92-EVALBOT\IAR\uCOS-III-CE4053_PG\Flash\O #
#                    bj\i2c.o" "D:\NTU\Sem 2\Embedded                         #
#                    OS\TEST\ce4053_source_code\ce4053\Micrium\Software\EvalB #
#                    oards\TI\LM3S9B92-EVALBOT\IAR\uCOS-III-CE4053_PG\Flash\O #
#                    bj\i2s.o" "D:\NTU\Sem 2\Embedded                         #
#                    OS\TEST\ce4053_source_code\ce4053\Micrium\Software\EvalB #
#                    oards\TI\LM3S9B92-EVALBOT\IAR\uCOS-III-CE4053_PG\Flash\O #
#                    bj\interrupt.o" "D:\NTU\Sem 2\Embedded                   #
#                    OS\TEST\ce4053_source_code\ce4053\Micrium\Software\EvalB #
#                    oards\TI\LM3S9B92-EVALBOT\IAR\uCOS-III-CE4053_PG\Flash\O #
#                    bj\lib_ascii.o" "D:\NTU\Sem 2\Embedded                   #
#                    OS\TEST\ce4053_source_code\ce4053\Micrium\Software\EvalB #
#                    oards\TI\LM3S9B92-EVALBOT\IAR\uCOS-III-CE4053_PG\Flash\O #
#                    bj\lib_math.o" "D:\NTU\Sem 2\Embedded                    #
#                    OS\TEST\ce4053_source_code\ce4053\Micrium\Software\EvalB #
#                    oards\TI\LM3S9B92-EVALBOT\IAR\uCOS-III-CE4053_PG\Flash\O #
#                    bj\lib_mem.o" "D:\NTU\Sem 2\Embedded                     #
#                    OS\TEST\ce4053_source_code\ce4053\Micrium\Software\EvalB #
#                    oards\TI\LM3S9B92-EVALBOT\IAR\uCOS-III-CE4053_PG\Flash\O #
#                    bj\lib_str.o" "D:\NTU\Sem 2\Embedded                     #
#                    OS\TEST\ce4053_source_code\ce4053\Micrium\Software\EvalB #
#                    oards\TI\LM3S9B92-EVALBOT\IAR\uCOS-III-CE4053_PG\Flash\O #
#                    bj\microsd.o" "D:\NTU\Sem 2\Embedded                     #
#                    OS\TEST\ce4053_source_code\ce4053\Micrium\Software\EvalB #
#                    oards\TI\LM3S9B92-EVALBOT\IAR\uCOS-III-CE4053_PG\Flash\O #
#                    bj\mpu.o" "D:\NTU\Sem 2\Embedded                         #
#                    OS\TEST\ce4053_source_code\ce4053\Micrium\Software\EvalB #
#                    oards\TI\LM3S9B92-EVALBOT\IAR\uCOS-III-CE4053_PG\Flash\O #
#                    bj\os_app_hooks.o" "D:\NTU\Sem 2\Embedded                #
#                    OS\TEST\ce4053_source_code\ce4053\Micrium\Software\EvalB #
#                    oards\TI\LM3S9B92-EVALBOT\IAR\uCOS-III-CE4053_PG\Flash\O #
#                    bj\os_cfg_app.o" "D:\NTU\Sem 2\Embedded                  #
#                    OS\TEST\ce4053_source_code\ce4053\Micrium\Software\EvalB #
#                    oards\TI\LM3S9B92-EVALBOT\IAR\uCOS-III-CE4053_PG\Flash\O #
#                    bj\os_core.o" "D:\NTU\Sem 2\Embedded                     #
#                    OS\TEST\ce4053_source_code\ce4053\Micrium\Software\EvalB #
#                    oards\TI\LM3S9B92-EVALBOT\IAR\uCOS-III-CE4053_PG\Flash\O #
#                    bj\os_cpu_a.o" "D:\NTU\Sem 2\Embedded                    #
#                    OS\TEST\ce4053_source_code\ce4053\Micrium\Software\EvalB #
#                    oards\TI\LM3S9B92-EVALBOT\IAR\uCOS-III-CE4053_PG\Flash\O #
#                    bj\os_cpu_c.o" "D:\NTU\Sem 2\Embedded                    #
#                    OS\TEST\ce4053_source_code\ce4053\Micrium\Software\EvalB #
#                    oards\TI\LM3S9B92-EVALBOT\IAR\uCOS-III-CE4053_PG\Flash\O #
#                    bj\os_dbg.o" "D:\NTU\Sem 2\Embedded                      #
#                    OS\TEST\ce4053_source_code\ce4053\Micrium\Software\EvalB #
#                    oards\TI\LM3S9B92-EVALBOT\IAR\uCOS-III-CE4053_PG\Flash\O #
#                    bj\os_flag.o" "D:\NTU\Sem 2\Embedded                     #
#                    OS\TEST\ce4053_source_code\ce4053\Micrium\Software\EvalB #
#                    oards\TI\LM3S9B92-EVALBOT\IAR\uCOS-III-CE4053_PG\Flash\O #
#                    bj\os_int.o" "D:\NTU\Sem 2\Embedded                      #
#                    OS\TEST\ce4053_source_code\ce4053\Micrium\Software\EvalB #
#                    oards\TI\LM3S9B92-EVALBOT\IAR\uCOS-III-CE4053_PG\Flash\O #
#                    bj\os_mem.o" "D:\NTU\Sem 2\Embedded                      #
#                    OS\TEST\ce4053_source_code\ce4053\Micrium\Software\EvalB #
#                    oards\TI\LM3S9B92-EVALBOT\IAR\uCOS-III-CE4053_PG\Flash\O #
#                    bj\os_msg.o" "D:\NTU\Sem 2\Embedded                      #
#                    OS\TEST\ce4053_source_code\ce4053\Micrium\Software\EvalB #
#                    oards\TI\LM3S9B92-EVALBOT\IAR\uCOS-III-CE4053_PG\Flash\O #
#                    bj\os_mutex.o" "D:\NTU\Sem 2\Embedded                    #
#                    OS\TEST\ce4053_source_code\ce4053\Micrium\Software\EvalB #
#                    oards\TI\LM3S9B92-EVALBOT\IAR\uCOS-III-CE4053_PG\Flash\O #
#                    bj\os_pend_multi.o" "D:\NTU\Sem 2\Embedded               #
#                    OS\TEST\ce4053_source_code\ce4053\Micrium\Software\EvalB #
#                    oards\TI\LM3S9B92-EVALBOT\IAR\uCOS-III-CE4053_PG\Flash\O #
#                    bj\os_prio.o" "D:\NTU\Sem 2\Embedded                     #
#                    OS\TEST\ce4053_source_code\ce4053\Micrium\Software\EvalB #
#                    oards\TI\LM3S9B92-EVALBOT\IAR\uCOS-III-CE4053_PG\Flash\O #
#                    bj\os_q.o" "D:\NTU\Sem 2\Embedded                        #
#                    OS\TEST\ce4053_source_code\ce4053\Micrium\Software\EvalB #
#                    oards\TI\LM3S9B92-EVALBOT\IAR\uCOS-III-CE4053_PG\Flash\O #
#                    bj\os_sem.o" "D:\NTU\Sem 2\Embedded                      #
#                    OS\TEST\ce4053_source_code\ce4053\Micrium\Software\EvalB #
#                    oards\TI\LM3S9B92-EVALBOT\IAR\uCOS-III-CE4053_PG\Flash\O #
#                    bj\os_stat.o" "D:\NTU\Sem 2\Embedded                     #
#                    OS\TEST\ce4053_source_code\ce4053\Micrium\Software\EvalB #
#                    oards\TI\LM3S9B92-EVALBOT\IAR\uCOS-III-CE4053_PG\Flash\O #
#                    bj\os_task.o" "D:\NTU\Sem 2\Embedded                     #
#                    OS\TEST\ce4053_source_code\ce4053\Micrium\Software\EvalB #
#                    oards\TI\LM3S9B92-EVALBOT\IAR\uCOS-III-CE4053_PG\Flash\O #
#                    bj\os_tick.o" "D:\NTU\Sem 2\Embedded                     #
#                    OS\TEST\ce4053_source_code\ce4053\Micrium\Software\EvalB #
#                    oards\TI\LM3S9B92-EVALBOT\IAR\uCOS-III-CE4053_PG\Flash\O #
#                    bj\os_time.o" "D:\NTU\Sem 2\Embedded                     #
#                    OS\TEST\ce4053_source_code\ce4053\Micrium\Software\EvalB #
#                    oards\TI\LM3S9B92-EVALBOT\IAR\uCOS-III-CE4053_PG\Flash\O #
#                    bj\os_tmr.o" "D:\NTU\Sem 2\Embedded                      #
#                    OS\TEST\ce4053_source_code\ce4053\Micrium\Software\EvalB #
#                    oards\TI\LM3S9B92-EVALBOT\IAR\uCOS-III-CE4053_PG\Flash\O #
#                    bj\os_var.o" "D:\NTU\Sem 2\Embedded                      #
#                    OS\TEST\ce4053_source_code\ce4053\Micrium\Software\EvalB #
#                    oards\TI\LM3S9B92-EVALBOT\IAR\uCOS-III-CE4053_PG\Flash\O #
#                    bj\pwm.o" "D:\NTU\Sem 2\Embedded                         #
#                    OS\TEST\ce4053_source_code\ce4053\Micrium\Software\EvalB #
#                    oards\TI\LM3S9B92-EVALBOT\IAR\uCOS-III-CE4053_PG\Flash\O #
#                    bj\qei.o" "D:\NTU\Sem 2\Embedded                         #
#                    OS\TEST\ce4053_source_code\ce4053\Micrium\Software\EvalB #
#                    oards\TI\LM3S9B92-EVALBOT\IAR\uCOS-III-CE4053_PG\Flash\O #
#                    bj\ssi.o" "D:\NTU\Sem 2\Embedded                         #
#                    OS\TEST\ce4053_source_code\ce4053\Micrium\Software\EvalB #
#                    oards\TI\LM3S9B92-EVALBOT\IAR\uCOS-III-CE4053_PG\Flash\O #
#                    bj\sysctl.o" "D:\NTU\Sem 2\Embedded                      #
#                    OS\TEST\ce4053_source_code\ce4053\Micrium\Software\EvalB #
#                    oards\TI\LM3S9B92-EVALBOT\IAR\uCOS-III-CE4053_PG\Flash\O #
#                    bj\systick.o" "D:\NTU\Sem 2\Embedded                     #
#                    OS\TEST\ce4053_source_code\ce4053\Micrium\Software\EvalB #
#                    oards\TI\LM3S9B92-EVALBOT\IAR\uCOS-III-CE4053_PG\Flash\O #
#                    bj\timer.o" "D:\NTU\Sem 2\Embedded                       #
#                    OS\TEST\ce4053_source_code\ce4053\Micrium\Software\EvalB #
#                    oards\TI\LM3S9B92-EVALBOT\IAR\uCOS-III-CE4053_PG\Flash\O #
#                    bj\uart.o" "D:\NTU\Sem 2\Embedded                        #
#                    OS\TEST\ce4053_source_code\ce4053\Micrium\Software\EvalB #
#                    oards\TI\LM3S9B92-EVALBOT\IAR\uCOS-III-CE4053_PG\Flash\O #
#                    bj\udma.o" "D:\NTU\Sem 2\Embedded                        #
#                    OS\TEST\ce4053_source_code\ce4053\Micrium\Software\EvalB #
#                    oards\TI\LM3S9B92-EVALBOT\IAR\uCOS-III-CE4053_PG\Flash\O #
#                    bj\usb.o" "D:\NTU\Sem 2\Embedded                         #
#                    OS\TEST\ce4053_source_code\ce4053\Micrium\Software\EvalB #
#                    oards\TI\LM3S9B92-EVALBOT\IAR\uCOS-III-CE4053_PG\Flash\O #
#                    bj\watchdog.o" --redirect _Printf=_PrintfFull            #
#                    --redirect _Scanf=_ScanfFull -o "D:\NTU\Sem 2\Embedded   #
#                    OS\TEST\ce4053_source_code\ce4053\Micrium\Software\EvalB #
#                    oards\TI\LM3S9B92-EVALBOT\IAR\uCOS-III-CE4053_PG\Flash\E #
#                    xe\uCOS-III-Ex4.out" --map "D:\NTU\Sem 2\Embedded        #
#                    OS\TEST\ce4053_source_code\ce4053\Micrium\Software\EvalB #
#                    oards\TI\LM3S9B92-EVALBOT\IAR\uCOS-III-CE4053_PG\Flash\L #
#                    ist\uCOS-III-Ex4.map" --config "D:\NTU\Sem 2\Embedded    #
#                    OS\TEST\ce4053_source_code\ce4053\Micrium\Software\EvalB #
#                    oards\TI\LM3S9B92-EVALBOT\IAR\uCOS-III-CE4053_PG\..\BSP\ #
#                    LM3S9B92_Flash.icf" --semihosting --entry                #
#                    __iar_program_start --vfe                                #
#                                                                             #
#                                                                             #
###############################################################################

*******************************************************************************
*** RUNTIME MODEL ATTRIBUTES
***

CppFlavor                     = *
__Heap_Handler                = Basic
__SystemLibrary               = DLib
__dlib_dynamic_initialization = normal


*******************************************************************************
*** PLACEMENT SUMMARY
***

"A1":  place at start of [0x00000000-0x0003ffff] { ro section .intvec };
"P1":  place in [from 0x00000000 to 0x0003ffff] { ro };
"P7":  place in [from 0x20000000 to 0x20017fff] { rw, block HEAP, block CSTACK };

  Section            Kind        Address    Size  Object
  -------            ----        -------    ----  ------
"A1":                                      0x11c
  .intvec            const    0x00000000   0x11c  app_vect.o [1]
                            - 0x0000011c   0x11c

"P1":                                     0x4084
  .text              ro code  0x0000011c   0xce4  os_task.o [1]
  .text              ro code  0x00000e00   0x120  os_mem.o [1]
  .text              ro code  0x00000f20    0x88  os_prio.o [1]
  .text              ro code  0x00000fa8   0x8c8  os_core.o [1]
  .text              ro code  0x00001870   0x158  os_cpu_c.o [1]
  .text              ro code  0x000019c8    0xcc  os_msg.o [1]
  CODE               ro code  0x00001a94    0x2a  cpu_a.o [1]
  .text              ro code  0x00001abe    0x2e  copy_init3.o [5]
  .text              ro code  0x00001aec   0x1a0  cpu_core.o [1]
  .text              ro code  0x00001c8c   0x3fc  os_tick.o [1]
  .text              ro code  0x00002088    0x28  cpu_bsp.o [1]
  .text              ro code  0x000020b0     0x6  ABImemclr4.o [5]
  .text              ro code  0x000020b6    0x22  zero_init3.o [5]
  .text              ro code  0x000020d8    0x56  ABImemcpy_unaligned.o [5]
  .rodata            const    0x0000212e     0x2  os_cfg_app.o [1]
  .text              ro code  0x00002130    0x1c  os_mutex.o [1]
  .text              ro code  0x0000214c    0x1c  os_q.o [1]
  .text              ro code  0x00002168   0x2e4  os_tmr.o [1]
  .text              ro code  0x0000244c   0x1e8  os_dbg.o [1]
  .text              ro code  0x00002634    0xe0  os_cfg_app.o [1]
  CODE               ro code  0x00002714    0x84  os_cpu_a.o [1]
  .text              ro code  0x00002798    0x48  os_time.o [1]
  .text              ro code  0x000027e0    0x66  lib_mem.o [1]
  .rodata            const    0x00002846     0x2  os_cfg_app.o [1]
  .text              ro code  0x00002848    0xa8  bsp.o [1]
  .text              ro code  0x000028f0    0x32  ABImemset48.o [5]
  .rodata            const    0x00002922     0x2  os_cfg_app.o [1]
  .text              ro code  0x00002924   0x468  sysctl.o [1]
  .text              ro code  0x00002d8c   0x256  bsp_int.o [1]
  .rodata            const    0x00002fe2     0x2  os_dbg.o [1]
  .text              ro code  0x00002fe4   0x264  bsp_display.o [1]
  .text              ro code  0x00003248    0xa0  bsp_io.o [1]
  .text              ro code  0x000032e8   0x154  bsp_sensors.o [1]
  .text              ro code  0x0000343c   0x120  bsp_motor.o [1]
  .text              ro code  0x0000355c   0x13c  cpu_c.o [1]
  .text              ro code  0x00003698    0xac  i2c.o [1]
  .text              ro code  0x00003744   0x2b0  gpio.o [1]
  .text              ro code  0x000039f4    0x82  pwm.o [1]
  .rodata            const    0x00003a76     0x2  os_dbg.o [1]
  .text              ro code  0x00003a78   0x308  app.o [1]
  .rodata            const    0x00003d80    0x5c  sysctl.o [1]
  .rodata            const    0x00003ddc    0x50  bsp_display.o [1]
  .rodata            const    0x00003e2c    0x48  gpio.o [1]
  .rodata            const    0x00003e74    0x34  os_dbg.o [1]
  .rodata            const    0x00003ea8    0x30  os_dbg.o [1]
  .rodata            const    0x00003ed8    0x2c  os_dbg.o [1]
  .rodata            const    0x00003f04    0x28  os_dbg.o [1]
  .rodata            const    0x00003f2c    0x28  os_dbg.o [1]
  .text              ro code  0x00003f54    0x28  data_init.o [5]
  .iar.init_table    const    0x00003f7c    0x24  - Linker created -
  .rodata            const    0x00003fa0    0x20  os_dbg.o [1]
  .text              ro code  0x00003fc0    0x1a  cmain.o [5]
  .text              ro code  0x00003fda     0x4  low_level_init.o [3]
  .text              ro code  0x00003fde     0x4  exit.o [3]
  .rodata            const    0x00003fe2     0x2  os_dbg.o [1]
  .text              ro code  0x00003fe4     0xa  cexit.o [5]
  .rodata            const    0x00003fee     0x2  os_dbg.o [1]
  .text              ro code  0x00003ff0    0x14  exit.o [6]
  .rodata            const    0x00004004    0x18  os_tmr.o [1]
  .rodata            const    0x0000401c    0x14  os_core.o [1]
  .rodata            const    0x00004030    0x14  os_task.o [1]
  .rodata            const    0x00004044    0x14  os_tick.o [1]
  .rodata            const    0x00004058    0x10  app.o [1]
  .rodata            const    0x00004068    0x10  app.o [1]
  .rodata            const    0x00004078    0x10  app.o [1]
  .rodata            const    0x00004088     0xc  app.o [1]
  .rodata            const    0x00004094     0xc  os_core.o [1]
  .rodata            const    0x000040a0     0xc  sysctl.o [1]
  .rodata            const    0x000040ac     0xc  sysctl.o [1]
  .text              ro code  0x000040b8     0xc  app_vect.o [1]
  .text              ro code  0x000040c4     0xc  cstartup_M.o [5]
  .rodata            const    0x000040d0     0x8  bsp_display.o [1]
  .rodata            const    0x000040d8     0x8  bsp_display.o [1]
  .rodata            const    0x000040e0     0x8  os_core.o [1]
  .rodata            const    0x000040e8     0x8  os_task.o [1]
  .rodata            const    0x000040f0     0x4  os_cfg_app.o [1]
  .rodata            const    0x000040f4     0x4  os_cfg_app.o [1]
  .rodata            const    0x000040f8     0x4  os_cfg_app.o [1]
  .rodata            const    0x000040fc     0x4  os_cfg_app.o [1]
  .rodata            const    0x00004100     0x4  os_cfg_app.o [1]
  .rodata            const    0x00004104     0x4  os_cfg_app.o [1]
  .rodata            const    0x00004108     0x4  os_cfg_app.o [1]
  .rodata            const    0x0000410c     0x4  os_cfg_app.o [1]
  .rodata            const    0x00004110     0x4  os_cfg_app.o [1]
  .rodata            const    0x00004114     0x4  os_cfg_app.o [1]
  .rodata            const    0x00004118     0x4  os_cfg_app.o [1]
  .rodata            const    0x0000411c     0x4  os_cfg_app.o [1]
  .rodata            const    0x00004120     0x4  os_cfg_app.o [1]
  .rodata            const    0x00004124     0x4  os_cfg_app.o [1]
  .rodata            const    0x00004128     0x4  os_cfg_app.o [1]
  .rodata            const    0x0000412c     0x4  os_cfg_app.o [1]
  .rodata            const    0x00004130     0x4  os_cfg_app.o [1]
  .rodata            const    0x00004134     0x4  os_cfg_app.o [1]
  .rodata            const    0x00004138     0x4  os_cfg_app.o [1]
  .rodata            const    0x0000413c     0x4  os_cfg_app.o [1]
  .rodata            const    0x00004140     0x4  os_cfg_app.o [1]
  .rodata            const    0x00004144     0x4  os_cfg_app.o [1]
  .rodata            const    0x00004148     0x4  os_cfg_app.o [1]
  .rodata            const    0x0000414c     0x4  os_dbg.o [1]
  .rodata            const    0x00004150     0x4  os_dbg.o [1]
  .rodata            const    0x00004154     0x4  os_dbg.o [1]
  .rodata            const    0x00004158     0x2  os_dbg.o [1]
  .rodata            const    0x0000415a     0x2  os_dbg.o [1]
  .rodata            const    0x0000415c     0x2  os_dbg.o [1]
  .rodata            const    0x0000415e     0x2  os_dbg.o [1]
  .rodata            const    0x00004160     0x2  os_dbg.o [1]
  .rodata            const    0x00004162     0x2  os_dbg.o [1]
  .rodata            const    0x00004164     0x2  os_dbg.o [1]
  .rodata            const    0x00004166     0x2  os_dbg.o [1]
  .rodata            const    0x00004168     0x2  os_dbg.o [1]
  .rodata            const    0x0000416a     0x2  os_dbg.o [1]
  .rodata            const    0x0000416c     0x2  os_dbg.o [1]
  .rodata            const    0x0000416e     0x2  os_dbg.o [1]
  .rodata            const    0x00004170     0x2  os_dbg.o [1]
  .rodata            const    0x00004172     0x2  os_dbg.o [1]
  .rodata            const    0x00004174     0x2  os_dbg.o [1]
  .rodata            const    0x00004176     0x2  os_dbg.o [1]
  .rodata            const    0x00004178     0x1  os_cfg_app.o [1]
  .rodata            const    0x00004179     0x1  os_cfg_app.o [1]
  .rodata            const    0x0000417a     0x1  os_dbg.o [1]
  .rodata            const    0x0000417b     0x1  os_dbg.o [1]
  .rodata            const    0x0000417c     0x1  os_dbg.o [1]
  .rodata            const    0x0000417d     0x1  os_dbg.o [1]
  .rodata            const    0x0000417e     0x1  os_dbg.o [1]
  .rodata            const    0x0000417f     0x1  os_dbg.o [1]
  .rodata            const    0x00004180     0x1  os_dbg.o [1]
  .rodata            const    0x00004181     0x1  os_dbg.o [1]
  .rodata            const    0x00004182     0x1  os_dbg.o [1]
  .rodata            const    0x00004183     0x1  os_dbg.o [1]
  .rodata            const    0x00004184     0x1  os_dbg.o [1]
  .rodata            const    0x00004185     0x1  os_dbg.o [1]
  .rodata            const    0x00004186     0x1  os_dbg.o [1]
  .rodata            const    0x00004187     0x1  os_dbg.o [1]
  .rodata            const    0x00004188     0x1  os_dbg.o [1]
  .rodata            const    0x00004189     0x1  os_dbg.o [1]
  .rodata            const    0x0000418a     0x1  os_dbg.o [1]
  .rodata            const    0x0000418b     0x1  os_dbg.o [1]
  .rodata            const    0x0000418c     0x1  os_dbg.o [1]
  .rodata            const    0x0000418d     0x1  os_dbg.o [1]
  .rodata            const    0x0000418e     0x1  os_dbg.o [1]
  .rodata            const    0x0000418f     0x1  os_dbg.o [1]
  .rodata            const    0x00004190     0x1  os_dbg.o [1]
  .rodata            const    0x00004191     0x1  os_dbg.o [1]
  .rodata            const    0x00004192     0x1  os_dbg.o [1]
  .rodata            const    0x00004193     0x1  os_dbg.o [1]
  .rodata            const    0x00004194     0x1  os_dbg.o [1]
  .rodata            const    0x00004195     0x1  os_dbg.o [1]
  .rodata            const    0x00004196     0x1  os_dbg.o [1]
  .rodata            const    0x00004197     0x1  os_dbg.o [1]
  .rodata            const    0x00004198     0x1  os_dbg.o [1]
  .rodata            const    0x00004199     0x1  os_dbg.o [1]
  .rodata            const    0x0000419a     0x0  zero_init3.o [5]
  .rodata            const    0x0000419a     0x0  copy_init3.o [5]
  Initializer bytes  ro data  0x0000419c     0x4  <for P7 s0>
                            - 0x000041a0  0x4084

"P7", part 1 of 3:                           0x4
  P7 s0                       0x20000000     0x4  <Init block>
    .data            inited   0x20000000     0x1  os_task.o [1]
                            - 0x20000004     0x4

"P7", part 2 of 3:                        0x20d4
  .bss               zero     0x20000004   0x640  os_cfg_app.o [1]
  .bss               zero     0x20000644   0x320  os_task.o [1]
  .bss               zero     0x20000964   0x200  app.o [1]
  .bss               zero     0x20000b64   0x200  app.o [1]
  .bss               zero     0x20000d64   0x200  app.o [1]
  .bss               zero     0x20000f64   0x200  app.o [1]
  .bss               zero     0x20001164   0x200  os_cfg_app.o [1]
  .bss               zero     0x20001364   0x200  os_cfg_app.o [1]
  .bss               zero     0x20001564   0x200  os_cfg_app.o [1]
  .bss               zero     0x20001764   0x200  os_cfg_app.o [1]
  .bss               zero     0x20001964   0x118  bsp_int.o [1]
  .bss               zero     0x20001a7c    0xf0  os_var.o [1]
  .bss               zero     0x20001b6c    0x8c  app.o [1]
  .bss               zero     0x20001bf8    0x8c  app.o [1]
  .bss               zero     0x20001c84    0x8c  app.o [1]
  .bss               zero     0x20001d10    0x8c  app.o [1]
  .bss               zero     0x20001d9c    0x8c  os_var.o [1]
  .bss               zero     0x20001e28    0x8c  os_var.o [1]
  .bss               zero     0x20001eb4    0x8c  os_var.o [1]
  .bss               zero     0x20001f40    0x68  os_cfg_app.o [1]
  .bss               zero     0x20001fa8    0x68  os_cfg_app.o [1]
  .bss               zero     0x20002010    0x20  os_task.o [1]
  .bss               zero     0x20002030    0x10  cpu_core.o [1]
  .bss               zero     0x20002040     0x8  os_var.o [1]
  .bss               zero     0x20002048     0x4  bsp.o [1]
  .bss               zero     0x2000204c     0x4  bsp_display.o [1]
  .bss               zero     0x20002050     0x4  cpu_core.o [1]
  .bss               zero     0x20002054     0x4  cpu_core.o [1]
  .bss               zero     0x20002058     0x4  cpu_core.o [1]
  .bss               zero     0x2000205c     0x4  cpu_core.o [1]
  .bss               zero     0x20002060     0x4  cpu_core.o [1]
  .bss               zero     0x20002064     0x4  cpu_core.o [1]
  .bss               zero     0x20002068     0x4  os_cpu_c.o [1]
  .bss               zero     0x2000206c     0x4  os_prio.o [1]
  .bss               zero     0x20002070     0x4  os_task.o [1]
  .bss               zero     0x20002074     0x4  os_task.o [1]
  .bss               zero     0x20002078     0x4  os_var.o [1]
  .bss               zero     0x2000207c     0x4  os_var.o [1]
  .bss               zero     0x20002080     0x4  os_var.o [1]
  .bss               zero     0x20002084     0x4  os_var.o [1]
  .bss               zero     0x20002088     0x4  os_var.o [1]
  .bss               zero     0x2000208c     0x4  os_var.o [1]
  .bss               zero     0x20002090     0x4  os_var.o [1]
  .bss               zero     0x20002094     0x4  os_var.o [1]
  .bss               zero     0x20002098     0x4  os_var.o [1]
  .bss               zero     0x2000209c     0x4  os_var.o [1]
  .bss               zero     0x200020a0     0x4  os_var.o [1]
  .bss               zero     0x200020a4     0x4  os_var.o [1]
  .bss               zero     0x200020a8     0x4  os_var.o [1]
  .bss               zero     0x200020ac     0x4  os_var.o [1]
  .bss               zero     0x200020b0     0x4  os_var.o [1]
  .bss               zero     0x200020b4     0x4  os_var.o [1]
  .bss               zero     0x200020b8     0x4  os_var.o [1]
  .bss               zero     0x200020bc     0x4  os_var.o [1]
  .bss               zero     0x200020c0     0x2  cpu_core.o [1]
  .bss               zero     0x200020c2     0x2  cpu_core.o [1]
  .bss               zero     0x200020c4     0x2  os_task.o [1]
  .bss               zero     0x200020c6     0x2  os_var.o [1]
  .bss               zero     0x200020c8     0x2  os_var.o [1]
  .bss               zero     0x200020ca     0x2  os_var.o [1]
  .bss               zero     0x200020cc     0x2  os_var.o [1]
  .bss               zero     0x200020ce     0x1  app.o [1]
  .bss               zero     0x200020cf     0x1  app.o [1]
  .bss               zero     0x200020d0     0x1  app.o [1]
  .bss               zero     0x200020d1     0x1  app.o [1]
  .bss               zero     0x200020d2     0x1  app.o [1]
  .bss               zero     0x200020d3     0x1  os_var.o [1]
  .bss               zero     0x200020d4     0x1  os_var.o [1]
  .bss               zero     0x200020d5     0x1  os_var.o [1]
  .bss               zero     0x200020d6     0x1  os_var.o [1]
  .bss               zero     0x200020d7     0x1  os_var.o [1]
                            - 0x200020d8  0x20d4

"P7", part 3 of 3:                         0x400
  CSTACK                      0x200020d8   0x400  <Block>
    CSTACK           uninit   0x200020d8   0x400  <Block tail>
                            - 0x200024d8   0x400


*******************************************************************************
*** INIT TABLE
***

          Address     Size
          -------     ----
Zero (__iar_zero_init3)
    1 destination range, total size 0x20d4:
          0x20000004  0x20d4

Copy (__iar_copy_init3)
    1 source range, total size 0x4 (400% of destination):
          0x0000419c     0x4
    1 destination range, total size 0x1:
          0x20000000     0x1



*******************************************************************************
*** MODULE SUMMARY
***

    Module                 ro code  ro data  rw data
    ------                 -------  -------  -------
D:\NTU\Sem 2\Embedded OS\TEST\ce4053_source_code\ce4053\Micrium\Software\EvalBoards\TI\LM3S9B92-EVALBOT\IAR\uCOS-III-CE4053_PG\Flash\Obj: [1]
    app.o                      776       60    2 613
    app_vect.o                  12      284
    bsp.o                      168                 4
    bsp_display.o              612       96        4
    bsp_int.o                  598               280
    bsp_io.o                   160
    bsp_motor.o                288
    bsp_sensors.o              340
    cpu_a.o                     42
    cpu_bsp.o                   40
    cpu_c.o                    316
    cpu_core.o                 416                44
    gpio.o                     688       72
    i2c.o                      172
    lib_mem.o                  102
    os_cfg_app.o               224      100    3 856
    os_core.o                2 248       40
    os_cpu_a.o                 132
    os_cpu_c.o                 344                 4
    os_dbg.o                   488      340
    os_mem.o                   288
    os_msg.o                   204
    os_mutex.o                  28
    os_prio.o                  136                 4
    os_q.o                      28
    os_task.o                3 300       29      843
    os_tick.o                1 020       20
    os_time.o                   72
    os_tmr.o                   740       24
    os_var.o                                     753
    pwm.o                      130
    sysctl.o                 1 128      116
    ------------------------------------------------
    Total:                  15 240    1 181    8 405

command line: [2]
    ------------------------------------------------
    Total:

dl7M_tlf.a: [3]
    exit.o                       4
    low_level_init.o             4
    ------------------------------------------------
    Total:                       8

m7M_tl.a: [4]
    ------------------------------------------------
    Total:

rt7M_tl.a: [5]
    ABImemclr4.o                 6
    ABImemcpy_unaligned.o       86
    ABImemset48.o               50
    cexit.o                     10
    cmain.o                     26
    copy_init3.o                46
    cstartup_M.o                12
    data_init.o                 40
    zero_init3.o                34
    ------------------------------------------------
    Total:                     310

shb_l.a: [6]
    exit.o                      20
    ------------------------------------------------
    Total:                      20

    Linker created                       41    1 024
----------------------------------------------------
    Grand Total:            15 578    1 222    9 429


*******************************************************************************
*** ENTRY LIST
***

Entry                      Address   Size  Type      Object
-----                      -------   ----  ----      ------
?main                   0x00003fc1         Code  Gb  cmain.o [5]
AppRobotMotorDriveSensorEnable
                        0x00003c3d   0x20  Code  Lc  app.o [1]
AppTaskStart            0x00003ac5   0xdc  Code  Lc  app.o [1]
AppTaskStartStk         0x20000964  0x200  Data  Lc  app.o [1]
AppTaskStartTCB         0x20001b6c   0x8c  Data  Lc  app.o [1]
App_BusFault_ISR        0x000040bd    0x2  Code  Lc  app_vect.o [1]
App_Fault_ISR           0x000040bb    0x2  Code  Lc  app_vect.o [1]
App_MemFault_ISR        0x000040c1    0x2  Code  Lc  app_vect.o [1]
App_NMI_ISR             0x000040b9    0x2  Code  Lc  app_vect.o [1]
App_Spurious_ISR        0x000040c3    0x2  Code  Lc  app_vect.o [1]
App_UsageFault_ISR      0x000040bf    0x2  Code  Lc  app_vect.o [1]
BSP_BumpSensorsInit     0x000032e9   0x18  Code  Gb  bsp_sensors.o [1]
BSP_CPUClkFreq          0x000028ad   0x12  Code  Gb  bsp.o [1]
BSP_CPU_ClkFreq_MHz     0x20002048    0x4  Data  Gb  bsp.o [1]
BSP_DisplayClear        0x000030bd   0x4c  Code  Gb  bsp_display.o [1]
BSP_DisplayInit         0x00003145   0xd8  Code  Gb  bsp_display.o [1]
BSP_DisplayOn           0x00003109   0x3c  Code  Gb  bsp_display.o [1]
BSP_DisplayWriteArray   0x0000303f   0x3e  Code  Lc  bsp_display.o [1]
BSP_DisplayWriteByte    0x0000300d   0x32  Code  Lc  bsp_display.o [1]
BSP_DisplayWriteFinal   0x0000307d   0x40  Code  Lc  bsp_display.o [1]
BSP_DisplayWriteFirst   0x00002fe5   0x28  Code  Lc  bsp_display.o [1]
BSP_Init                0x00002849   0x64  Code  Gb  bsp.o [1]
BSP_IntDisAll           0x00002d8d    0x8  Code  Gb  bsp_int.o [1]
BSP_IntEn               0x00002d95   0x10  Code  Gb  bsp_int.o [1]
BSP_IntHandler          0x00002fbb   0x20  Code  Lc  bsp_int.o [1]
BSP_IntHandlerADC0      0x00002e3f    0xa  Code  Gb  bsp_int.o [1]
BSP_IntHandlerADC1      0x00002e49    0xa  Code  Gb  bsp_int.o [1]
BSP_IntHandlerADC1_0    0x00002f75    0xa  Code  Gb  bsp_int.o [1]
BSP_IntHandlerADC1_1    0x00002f7f    0xa  Code  Gb  bsp_int.o [1]
BSP_IntHandlerADC1_2    0x00002f89    0xa  Code  Gb  bsp_int.o [1]
BSP_IntHandlerADC1_3    0x00002f93    0xa  Code  Gb  bsp_int.o [1]
BSP_IntHandlerADC2      0x00002e53    0xa  Code  Gb  bsp_int.o [1]
BSP_IntHandlerADC3      0x00002e5d    0xa  Code  Gb  bsp_int.o [1]
BSP_IntHandlerCAN0      0x00002f2f    0xa  Code  Gb  bsp_int.o [1]
BSP_IntHandlerCAN1      0x00002f39    0xa  Code  Gb  bsp_int.o [1]
BSP_IntHandlerCOMP0     0x00002ead    0xa  Code  Gb  bsp_int.o [1]
BSP_IntHandlerCOMP1     0x00002eb7    0xa  Code  Gb  bsp_int.o [1]
BSP_IntHandlerCOMP2     0x00002ec1    0xa  Code  Gb  bsp_int.o [1]
BSP_IntHandlerDummy     0x00002fe1    0x2  Code  Lc  bsp_int.o [1]
BSP_IntHandlerEPI       0x00002fa7    0xa  Code  Gb  bsp_int.o [1]
BSP_IntHandlerETH       0x00002f43    0xa  Code  Gb  bsp_int.o [1]
BSP_IntHandlerFLASH     0x00002ed5    0xa  Code  Gb  bsp_int.o [1]
BSP_IntHandlerGPIOA     0x00002de5    0xa  Code  Gb  bsp_int.o [1]
BSP_IntHandlerGPIOB     0x00002def    0xa  Code  Gb  bsp_int.o [1]
BSP_IntHandlerGPIOC     0x00002df9    0xa  Code  Gb  bsp_int.o [1]
BSP_IntHandlerGPIOD     0x00002e03    0xa  Code  Gb  bsp_int.o [1]
BSP_IntHandlerGPIOE     0x00002e0d    0xa  Code  Gb  bsp_int.o [1]
BSP_IntHandlerGPIOF     0x00002edf    0xa  Code  Gb  bsp_int.o [1]
BSP_IntHandlerGPIOG     0x00002ee9    0xa  Code  Gb  bsp_int.o [1]
BSP_IntHandlerGPIOH     0x00002ef3    0xa  Code  Gb  bsp_int.o [1]
BSP_IntHandlerGPIOJ     0x00002fb1    0xa  Code  Gb  bsp_int.o [1]
BSP_IntHandlerHIBERNATE
                        0x00002f4d    0xa  Code  Gb  bsp_int.o [1]
BSP_IntHandlerI2C0      0x00002e35    0xa  Code  Gb  bsp_int.o [1]
BSP_IntHandlerI2C1      0x00002f25    0xa  Code  Gb  bsp_int.o [1]
BSP_IntHandlerI2S0      0x00002f9d    0xa  Code  Gb  bsp_int.o [1]
BSP_IntHandlerSSI0      0x00002e2b    0xa  Code  Gb  bsp_int.o [1]
BSP_IntHandlerSSI1      0x00002f07    0xa  Code  Gb  bsp_int.o [1]
BSP_IntHandlerSYSCTL    0x00002ecb    0xa  Code  Gb  bsp_int.o [1]
BSP_IntHandlerTIMER0A   0x00002e71    0xa  Code  Gb  bsp_int.o [1]
BSP_IntHandlerTIMER0B   0x00002e7b    0xa  Code  Gb  bsp_int.o [1]
BSP_IntHandlerTIMER1A   0x00002e85    0xa  Code  Gb  bsp_int.o [1]
BSP_IntHandlerTIMER1B   0x00002e8f    0xa  Code  Gb  bsp_int.o [1]
BSP_IntHandlerTIMER2A   0x00002e99    0xa  Code  Gb  bsp_int.o [1]
BSP_IntHandlerTIMER2B   0x00002ea3    0xa  Code  Gb  bsp_int.o [1]
BSP_IntHandlerTIMER3A   0x00002f11    0xa  Code  Gb  bsp_int.o [1]
BSP_IntHandlerTIMER3B   0x00002f1b    0xa  Code  Gb  bsp_int.o [1]
BSP_IntHandlerUART0     0x00002e17    0xa  Code  Gb  bsp_int.o [1]
BSP_IntHandlerUART1     0x00002e21    0xa  Code  Gb  bsp_int.o [1]
BSP_IntHandlerUART2     0x00002efd    0xa  Code  Gb  bsp_int.o [1]
BSP_IntHandlerUDMA_ERR  0x00002f6b    0xa  Code  Gb  bsp_int.o [1]
BSP_IntHandlerUDMA_SW   0x00002f61    0xa  Code  Gb  bsp_int.o [1]
BSP_IntHandlerUSB       0x00002f57    0xa  Code  Gb  bsp_int.o [1]
BSP_IntHandlerWATCHDOG  0x00002e67    0xa  Code  Gb  bsp_int.o [1]
BSP_IntInit             0x00002dcd   0x18  Code  Gb  bsp_int.o [1]
BSP_IntVectSet          0x00002da5   0x28  Code  Gb  bsp_int.o [1]
BSP_IntVectTbl          0x20001964  0x118  Data  Lc  bsp_int.o [1]
BSP_LED_Off             0x000032a9   0x36  Code  Gb  bsp_io.o [1]
BSP_LED_On              0x00003273   0x36  Code  Gb  bsp_io.o [1]
BSP_LEDsInit            0x00003261   0x12  Code  Gb  bsp_io.o [1]
BSP_MotorStop           0x00003519   0x30  Code  Gb  bsp_motor.o [1]
BSP_MotorsInit          0x0000343d   0xdc  Code  Gb  bsp_motor.o [1]
BSP_PushButtonsInit     0x00003249   0x18  Code  Gb  bsp_io.o [1]
BSP_WheelSensorEnable   0x000033a3    0xe  Code  Gb  bsp_sensors.o [1]
BSP_WheelSensorIntEnable
                        0x000033b1   0x7e  Code  Gb  bsp_sensors.o [1]
BSP_WheelSensorsInit    0x00003301   0xa2  Code  Gb  bsp_sensors.o [1]
CPU_CntLeadZeros        0x00001aab         Code  Gb  cpu_a.o [1]
CPU_Init                0x00001aed   0x10  Code  Gb  cpu_core.o [1]
CPU_IntDis              0x00001a95         Code  Gb  cpu_a.o [1]
CPU_IntDisMeasCtr       0x200020c0    0x2  Data  Gb  cpu_core.o [1]
CPU_IntDisMeasInit      0x00001bdf   0x74  Code  Lc  cpu_core.o [1]
CPU_IntDisMeasMaxCalc   0x00001c53   0x14  Code  Lc  cpu_core.o [1]
CPU_IntDisMeasMaxCurGet
                        0x00001b45   0x1c  Code  Gb  cpu_core.o [1]
CPU_IntDisMeasMaxCurReset
                        0x00001b25   0x20  Code  Gb  cpu_core.o [1]
CPU_IntDisMeasMaxCur_cnts
                        0x20002060    0x4  Data  Gb  cpu_core.o [1]
CPU_IntDisMeasMax_cnts  0x20002064    0x4  Data  Gb  cpu_core.o [1]
CPU_IntDisMeasOvrhd_cnts
                        0x2000205c    0x4  Data  Gb  cpu_core.o [1]
CPU_IntDisMeasStart     0x00001b61   0x28  Code  Gb  cpu_core.o [1]
CPU_IntDisMeasStart_cnts
                        0x20002054    0x4  Data  Gb  cpu_core.o [1]
CPU_IntDisMeasStop      0x00001b89   0x40  Code  Gb  cpu_core.o [1]
CPU_IntDisMeasStop_cnts
                        0x20002058    0x4  Data  Gb  cpu_core.o [1]
CPU_IntDisNestCtr       0x200020c2    0x2  Data  Gb  cpu_core.o [1]
CPU_IntEn               0x00001a99         Code  Gb  cpu_a.o [1]
CPU_IntSrcEn            0x0000355d  0x12c  Code  Gb  cpu_c.o [1]
CPU_Name                0x20002030   0x10  Data  Gb  cpu_core.o [1]
CPU_NameClr             0x00001afd   0x22  Code  Gb  cpu_core.o [1]
CPU_NameInit            0x00001bc9    0x8  Code  Lc  cpu_core.o [1]
CPU_RevBits             0x00001ab1         Code  Gb  cpu_a.o [1]
CPU_SR_Restore          0x00001aa5         Code  Gb  cpu_a.o [1]
CPU_SR_Save             0x00001a9d         Code  Gb  cpu_a.o [1]
CPU_TS_Init             0x00001bd1    0xe  Code  Lc  cpu_core.o [1]
CPU_TS_TmrFreqSet       0x00001b1f    0x6  Code  Gb  cpu_core.o [1]
CPU_TS_TmrFreq_Hz       0x20002050    0x4  Data  Gb  cpu_core.o [1]
CPU_TS_TmrInit          0x00002089   0x18  Code  Gb  cpu_bsp.o [1]
CPU_TS_TmrRd            0x000020a1    0x6  Code  Gb  cpu_bsp.o [1]
CPU_WaitForExcept       0x00001abb         Code  Gb  cpu_a.o [1]
CPU_WaitForInt          0x00001ab7         Code  Gb  cpu_a.o [1]
CSTACK$$Base            0x200020d8          --   Gb  - Linker created -
CSTACK$$Limit           0x200024d8          --   Gb  - Linker created -
GPIODirModeSet          0x00003745   0x46  Code  Gb  gpio.o [1]
GPIOIntTypeSet          0x0000378b   0x5a  Code  Gb  gpio.o [1]
GPIOPadConfigSet        0x000037e5  0x10e  Code  Gb  gpio.o [1]
GPIOPinConfigure        0x000039a3   0x46  Code  Gb  gpio.o [1]
GPIOPinIntClear         0x0000392b    0x8  Code  Gb  gpio.o [1]
GPIOPinIntDisable       0x00003905   0x12  Code  Gb  gpio.o [1]
GPIOPinIntEnable        0x000038f3   0x12  Code  Gb  gpio.o [1]
GPIOPinIntStatus        0x00003917   0x14  Code  Gb  gpio.o [1]
GPIOPinTypeGPIOInput    0x0000393d   0x22  Code  Gb  gpio.o [1]
GPIOPinTypeGPIOOutput   0x0000395f   0x22  Code  Gb  gpio.o [1]
GPIOPinTypeI2C          0x00003981   0x22  Code  Gb  gpio.o [1]
GPIOPinWrite            0x00003933    0xa  Code  Gb  gpio.o [1]
I2CMasterControl        0x0000371d    0x4  Code  Gb  i2c.o [1]
I2CMasterDataPut        0x0000373f    0x6  Code  Gb  i2c.o [1]
I2CMasterEnable         0x000036d7    0xa  Code  Gb  i2c.o [1]
I2CMasterErr            0x00003721   0x1e  Code  Gb  i2c.o [1]
I2CMasterInitExpClk     0x00003699   0x3e  Code  Gb  i2c.o [1]
I2CMasterIntStatus      0x000036e1   0x26  Code  Gb  i2c.o [1]
I2CMasterSlaveAddrSet   0x00003711    0xc  Code  Gb  i2c.o [1]
IntWheelSensor          0x00003c5d   0xd2  Code  Gb  app.o [1]
LEDBlink                0x00003c0d   0x30  Code  Lc  app.o [1]
LEDBlinkStk             0x20000f64  0x200  Data  Lc  app.o [1]
LEDBlinkTCB             0x20001d10   0x8c  Data  Lc  app.o [1]
Left_tgt                0x200020ce    0x1  Data  Gb  app.o [1]
MemBlock                0x20002010   0x20  Data  Gb  os_task.o [1]
Mem_Clr                 0x000027e1    0xc  Code  Gb  lib_mem.o [1]
Mem_Set                 0x000027ed   0x5a  Code  Gb  lib_mem.o [1]
Memory_alloc_init       0x20000644  0x320  Data  Gb  os_task.o [1]
OSCfg_DataSizeRAM       0x00004148    0x4  Data  Gb  os_cfg_app.o [1]
OSCfg_ISRStk            0x20001364  0x200  Data  Gb  os_cfg_app.o [1]
OSCfg_ISRStkBasePtr     0x00004100    0x4  Data  Gb  os_cfg_app.o [1]
OSCfg_ISRStkSize        0x00004104    0x4  Data  Gb  os_cfg_app.o [1]
OSCfg_ISRStkSizeRAM     0x00004108    0x4  Data  Gb  os_cfg_app.o [1]
OSCfg_IdleTaskStk       0x20001164  0x200  Data  Gb  os_cfg_app.o [1]
OSCfg_IdleTaskStkBasePtr
                        0x000040f0    0x4  Data  Gb  os_cfg_app.o [1]
OSCfg_IdleTaskStkLimit  0x000040f4    0x4  Data  Gb  os_cfg_app.o [1]
OSCfg_IdleTaskStkSize   0x000040f8    0x4  Data  Gb  os_cfg_app.o [1]
OSCfg_IdleTaskStkSizeRAM
                        0x000040fc    0x4  Data  Gb  os_cfg_app.o [1]
OSCfg_Init              0x00002635   0xe0  Code  Gb  os_cfg_app.o [1]
OSCfg_MsgPool           0x20000004  0x640  Data  Gb  os_cfg_app.o [1]
OSCfg_MsgPoolBasePtr    0x00004110    0x4  Data  Gb  os_cfg_app.o [1]
OSCfg_MsgPoolSize       0x0000212e    0x2  Data  Gb  os_cfg_app.o [1]
OSCfg_MsgPoolSizeRAM    0x0000410c    0x4  Data  Gb  os_cfg_app.o [1]
OSCfg_StkSizeMin        0x00004114    0x4  Data  Gb  os_cfg_app.o [1]
OSCfg_TickRate_Hz       0x00004118    0x4  Data  Gb  os_cfg_app.o [1]
OSCfg_TickTaskPrio      0x00004178    0x1  Data  Gb  os_cfg_app.o [1]
OSCfg_TickTaskStk       0x20001564  0x200  Data  Gb  os_cfg_app.o [1]
OSCfg_TickTaskStkBasePtr
                        0x0000411c    0x4  Data  Gb  os_cfg_app.o [1]
OSCfg_TickTaskStkLimit  0x00004120    0x4  Data  Gb  os_cfg_app.o [1]
OSCfg_TickTaskStkSize   0x00004124    0x4  Data  Gb  os_cfg_app.o [1]
OSCfg_TickTaskStkSizeRAM
                        0x00004128    0x4  Data  Gb  os_cfg_app.o [1]
OSCfg_TickWheel         0x20001f40   0x68  Data  Gb  os_cfg_app.o [1]
OSCfg_TickWheelSize     0x00002846    0x2  Data  Gb  os_cfg_app.o [1]
OSCfg_TickWheelSizeRAM  0x0000412c    0x4  Data  Gb  os_cfg_app.o [1]
OSCfg_TmrTaskPrio       0x00004179    0x1  Data  Gb  os_cfg_app.o [1]
OSCfg_TmrTaskRate_Hz    0x00004130    0x4  Data  Gb  os_cfg_app.o [1]
OSCfg_TmrTaskStk        0x20001764  0x200  Data  Gb  os_cfg_app.o [1]
OSCfg_TmrTaskStkBasePtr
                        0x00004134    0x4  Data  Gb  os_cfg_app.o [1]
OSCfg_TmrTaskStkLimit   0x00004138    0x4  Data  Gb  os_cfg_app.o [1]
OSCfg_TmrTaskStkSize    0x0000413c    0x4  Data  Gb  os_cfg_app.o [1]
OSCfg_TmrTaskStkSizeRAM
                        0x00004140    0x4  Data  Gb  os_cfg_app.o [1]
OSCfg_TmrWheel          0x20001fa8   0x68  Data  Gb  os_cfg_app.o [1]
OSCfg_TmrWheelSize      0x00002922    0x2  Data  Gb  os_cfg_app.o [1]
OSCfg_TmrWheelSizeRAM   0x00004144    0x4  Data  Gb  os_cfg_app.o [1]
OSDbg_AppHooksEn        0x0000417b    0x1  Data  Gb  os_dbg.o [1]
OSDbg_ArgChkEn          0x0000417a    0x1  Data  Gb  os_dbg.o [1]
OSDbg_CalledFromISRChkEn
                        0x0000417c    0x1  Data  Gb  os_dbg.o [1]
OSDbg_DataSize          0x00004154    0x4  Data  Gb  os_dbg.o [1]
OSDbg_DbgEn             0x00002fe2    0x2  Data  Gb  os_dbg.o [1]
OSDbg_EndiannessTest    0x0000414c    0x4  Data  Gb  os_dbg.o [1]
OSDbg_FlagEn            0x0000417d    0x1  Data  Gb  os_dbg.o [1]
OSDbg_FlagGrp           0x00003f04   0x28  Data  Gb  os_dbg.o [1]
OSDbg_ISRPostDeferredEn
                        0x0000417e    0x1  Data  Gb  os_dbg.o [1]
OSDbg_Mem               0x00003fa0   0x20  Data  Gb  os_dbg.o [1]
OSDbg_MemEn             0x0000417f    0x1  Data  Gb  os_dbg.o [1]
OSDbg_MemSize           0x00003a76    0x2  Data  Gb  os_dbg.o [1]
OSDbg_MsgEn             0x00004180    0x1  Data  Gb  os_dbg.o [1]
OSDbg_MsgPoolSize       0x00003fee    0x2  Data  Gb  os_dbg.o [1]
OSDbg_MsgQSize          0x00004158    0x2  Data  Gb  os_dbg.o [1]
OSDbg_MsgSize           0x00003fe2    0x2  Data  Gb  os_dbg.o [1]
OSDbg_Mutex             0x00003ed8   0x2c  Data  Gb  os_dbg.o [1]
OSDbg_MutexDelEn        0x00004182    0x1  Data  Gb  os_dbg.o [1]
OSDbg_MutexEn           0x00004181    0x1  Data  Gb  os_dbg.o [1]
OSDbg_MutexPendAbortEn  0x00004183    0x1  Data  Gb  os_dbg.o [1]
OSDbg_MutexSize         0x0000415a    0x2  Data  Gb  os_dbg.o [1]
OSDbg_ObjTypeChkEn      0x00004184    0x1  Data  Gb  os_dbg.o [1]
OSDbg_PendDataSize      0x0000415c    0x2  Data  Gb  os_dbg.o [1]
OSDbg_PendListSize      0x0000415e    0x2  Data  Gb  os_dbg.o [1]
OSDbg_PendMultiEn       0x00004185    0x1  Data  Gb  os_dbg.o [1]
OSDbg_PendObjSize       0x00004160    0x2  Data  Gb  os_dbg.o [1]
OSDbg_PrioMax           0x00004162    0x2  Data  Gb  os_dbg.o [1]
OSDbg_PrioTblSize       0x00004164    0x2  Data  Gb  os_dbg.o [1]
OSDbg_PtrSize           0x00004166    0x2  Data  Gb  os_dbg.o [1]
OSDbg_Q                 0x00003ea8   0x30  Data  Gb  os_dbg.o [1]
OSDbg_QDelEn            0x00004187    0x1  Data  Gb  os_dbg.o [1]
OSDbg_QEn               0x00004186    0x1  Data  Gb  os_dbg.o [1]
OSDbg_QFlushEn          0x00004188    0x1  Data  Gb  os_dbg.o [1]
OSDbg_QPendAbortEn      0x00004189    0x1  Data  Gb  os_dbg.o [1]
OSDbg_QSize             0x00004168    0x2  Data  Gb  os_dbg.o [1]
OSDbg_RdyList           0x0000416a    0x2  Data  Gb  os_dbg.o [1]
OSDbg_RdyListSize       0x00004150    0x4  Data  Gb  os_dbg.o [1]
OSDbg_SchedRoundRobinEn
                        0x0000418a    0x1  Data  Gb  os_dbg.o [1]
OSDbg_Sem               0x00003f2c   0x28  Data  Gb  os_dbg.o [1]
OSDbg_SemEn             0x0000418b    0x1  Data  Gb  os_dbg.o [1]
OSDbg_StatTaskEn        0x0000418d    0x1  Data  Gb  os_dbg.o [1]
OSDbg_StatTaskStkChkEn  0x0000418e    0x1  Data  Gb  os_dbg.o [1]
OSDbg_StkWidth          0x0000418c    0x1  Data  Gb  os_dbg.o [1]
OSDbg_TCBSize           0x0000416e    0x2  Data  Gb  os_dbg.o [1]
OSDbg_TaskChangePrioEn  0x0000418f    0x1  Data  Gb  os_dbg.o [1]
OSDbg_TaskDelEn         0x00004190    0x1  Data  Gb  os_dbg.o [1]
OSDbg_TaskProfileEn     0x00004193    0x1  Data  Gb  os_dbg.o [1]
OSDbg_TaskQEn           0x00004191    0x1  Data  Gb  os_dbg.o [1]
OSDbg_TaskQPendAbortEn  0x00004192    0x1  Data  Gb  os_dbg.o [1]
OSDbg_TaskRegTblSize    0x0000416c    0x2  Data  Gb  os_dbg.o [1]
OSDbg_TaskSemPendAbortEn
                        0x00004194    0x1  Data  Gb  os_dbg.o [1]
OSDbg_TaskSuspendEn     0x00004195    0x1  Data  Gb  os_dbg.o [1]
OSDbg_TickSpokeSize     0x00004170    0x2  Data  Gb  os_dbg.o [1]
OSDbg_TimeDlyHMSMEn     0x00004196    0x1  Data  Gb  os_dbg.o [1]
OSDbg_TimeDlyResumeEn   0x00004197    0x1  Data  Gb  os_dbg.o [1]
OSDbg_Tmr               0x00003e74   0x34  Data  Gb  os_dbg.o [1]
OSDbg_TmrDelEn          0x00004199    0x1  Data  Gb  os_dbg.o [1]
OSDbg_TmrEn             0x00004198    0x1  Data  Gb  os_dbg.o [1]
OSDbg_TmrSize           0x00004172    0x2  Data  Gb  os_dbg.o [1]
OSDbg_TmrSpokeSize      0x00004174    0x2  Data  Gb  os_dbg.o [1]
OSDbg_VersionNbr        0x00004176    0x2  Data  Gb  os_dbg.o [1]
OSIdleTaskCtr           0x20002078    0x4  Data  Gb  os_var.o [1]
OSIdleTaskHook          0x00001871    0x2  Code  Gb  os_cpu_c.o [1]
OSIdleTaskTCB           0x20001d9c   0x8c  Data  Gb  os_var.o [1]
OSInit                  0x00000fa9   0xd2  Code  Gb  os_core.o [1]
OSInitHook              0x00001873   0x14  Code  Gb  os_cpu_c.o [1]
OSIntEnter              0x0000107b   0x24  Code  Gb  os_core.o [1]
OSIntExit               0x0000109f   0xb2  Code  Gb  os_core.o [1]
OSIntNestingCtr         0x200020d3    0x1  Data  Gb  os_var.o [1]
OSMemCreate             0x00000e01   0x8c  Code  Gb  os_mem.o [1]
OSMemDbgListPtr         0x2000207c    0x4  Data  Gb  os_var.o [1]
OSMemGet                0x00000e8d   0x4a  Code  Gb  os_mem.o [1]
OSMemQty                0x200020c6    0x2  Data  Gb  os_var.o [1]
OSMsgPool               0x20002040    0x8  Data  Gb  os_var.o [1]
OSMutexDbgListPtr       0x20002080    0x4  Data  Gb  os_var.o [1]
OSMutexQty              0x200020c8    0x2  Data  Gb  os_var.o [1]
OSPrioCur               0x200020d5    0x1  Data  Gb  os_var.o [1]
OSPrioHighRdy           0x200020d6    0x1  Data  Gb  os_var.o [1]
OSPrioTbl               0x2000206c    0x4  Data  Gb  os_prio.o [1]
OSQDbgListPtr           0x20002084    0x4  Data  Gb  os_var.o [1]
OSQQty                  0x200020ca    0x2  Data  Gb  os_var.o [1]
OSRdyList               0x20001a7c   0xf0  Data  Gb  os_var.o [1]
OSRecTaskCreate         0x00000b2f  0x11e  Code  Gb  os_task.o [1]
OSRecTaskDel            0x00000c59  0x110  Code  Gb  os_task.o [1]
OSRunning               0x200020d4    0x1  Data  Gb  os_var.o [1]
OSSched                 0x00001151   0x78  Code  Gb  os_core.o [1]
OSSchedLock             0x000011c9   0x68  Code  Gb  os_core.o [1]
OSSchedLockNestingCtr   0x200020d7    0x1  Data  Gb  os_var.o [1]
OSSchedLockTimeBegin    0x20002088    0x4  Data  Gb  os_var.o [1]
OSSchedLockTimeMax      0x2000208c    0x4  Data  Gb  os_var.o [1]
OSSchedLockTimeMaxCur   0x20002090    0x4  Data  Gb  os_var.o [1]
OSSchedUnlock           0x00001231   0x88  Code  Gb  os_core.o [1]
OSStart                 0x000012b9   0x64  Code  Gb  os_core.o [1]
OSStartHighRdy          0x00002715         Code  Gb  os_cpu_a.o [1]
OSTCBCurPtr             0x200020b8    0x4  Data  Gb  os_var.o [1]
OSTCBHighRdyPtr         0x200020bc    0x4  Data  Gb  os_var.o [1]
OSTaskCreate            0x00000567  0x10c  Code  Gb  os_task.o [1]
OSTaskCreateHook        0x00001887    0x2  Code  Gb  os_cpu_c.o [1]
OSTaskCtxSwCtr          0x20002094    0x4  Data  Gb  os_var.o [1]
OSTaskDbgListPtr        0x20002098    0x4  Data  Gb  os_var.o [1]
OSTaskDel               0x00000673  0x104  Code  Gb  os_task.o [1]
OSTaskDelHook           0x00001889    0x2  Code  Gb  os_cpu_c.o [1]
OSTaskQty               0x200020cc    0x2  Data  Gb  os_var.o [1]
OSTaskReturnHook        0x0000188b    0x2  Code  Gb  os_cpu_c.o [1]
OSTaskSemPend           0x00000777  0x146  Code  Gb  os_task.o [1]
OSTaskSemPost           0x000008bd   0x1c  Code  Gb  os_task.o [1]
OSTaskStkInit           0x0000188d   0x80  Code  Gb  os_cpu_c.o [1]
OSTaskSwHook            0x0000190d   0x36  Code  Gb  os_cpu_c.o [1]
OSTickCtr               0x2000209c    0x4  Data  Gb  os_var.o [1]
OSTickTaskTCB           0x20001e28   0x8c  Data  Gb  os_var.o [1]
OSTickTaskTimeMax       0x200020a0    0x4  Data  Gb  os_var.o [1]
OSTimeTick              0x00002799   0x36  Code  Gb  os_time.o [1]
OSTimeTickHook          0x00001943    0x2  Code  Gb  os_cpu_c.o [1]
OSTmrDbgListPtr         0x200020a4    0x4  Data  Gb  os_var.o [1]
OSTmrTaskTCB            0x20001eb4   0x8c  Data  Gb  os_var.o [1]
OSTmrTaskTimeMax        0x200020a8    0x4  Data  Gb  os_var.o [1]
OSTmrTickCtr            0x200020ac    0x4  Data  Gb  os_var.o [1]
OSTmrUpdateCnt          0x200020b0    0x4  Data  Gb  os_var.o [1]
OSTmrUpdateCtr          0x200020b4    0x4  Data  Gb  os_var.o [1]
OS_CPU_ExceptStkBase    0x20002068    0x4  Data  Gb  os_cpu_c.o [1]
OS_CPU_PendSVHandler    0x00002733         Code  Gb  os_cpu_a.o [1]
OS_CPU_SysTickHandler   0x00001945   0x2c  Code  Gb  os_cpu_c.o [1]
OS_CPU_SysTickInit      0x00001971   0x2c  Code  Gb  os_cpu_c.o [1]
OS_Dbg_Init             0x0000244d  0x1e8  Code  Gb  os_dbg.o [1]
OS_IdleTask             0x0000131d   0x2c  Code  Gb  os_core.o [1]
OS_IdleTaskInit         0x00001349   0x50  Code  Gb  os_core.o [1]
OS_MemDbgListAdd        0x00000ed7   0x24  Code  Gb  os_mem.o [1]
OS_MemInit              0x00000efb   0x12  Code  Gb  os_mem.o [1]
OS_MsgPoolCreate        0x000019c9   0x3c  Code  Gb  os_msg.o [1]
OS_MsgPoolInit          0x00001a05   0x2c  Code  Gb  os_msg.o [1]
OS_MsgQFreeAll          0x00001a31   0x44  Code  Gb  os_msg.o [1]
OS_MsgQInit             0x00001a75   0x14  Code  Gb  os_msg.o [1]
OS_MutexInit            0x00002131   0x12  Code  Gb  os_mutex.o [1]
OS_Pend                 0x00001399   0x6c  Code  Gb  os_core.o [1]
OS_PendDataInit         0x00001405   0x34  Code  Gb  os_core.o [1]
OS_PendDbgNameAdd       0x00001439   0x42  Code  Gb  os_core.o [1]
OS_PendDbgNameRemove    0x0000147b   0x1e  Code  Gb  os_core.o [1]
OS_PendListInsertPrio   0x00001499   0x6e  Code  Gb  os_core.o [1]
OS_PendListRemove       0x00001507   0x28  Code  Gb  os_core.o [1]
OS_PendListRemove1      0x0000152f   0x48  Code  Gb  os_core.o [1]
OS_Post                 0x00001577   0xc0  Code  Gb  os_core.o [1]
OS_Post1                0x00001637   0x26  Code  Gb  os_core.o [1]
OS_PrioGetHighest       0x00000f35   0x20  Code  Gb  os_prio.o [1]
OS_PrioInit             0x00000f21   0x14  Code  Gb  os_prio.o [1]
OS_PrioInsert           0x00000f55   0x26  Code  Gb  os_prio.o [1]
OS_PrioRemove           0x00000f7b   0x28  Code  Gb  os_prio.o [1]
OS_QInit                0x0000214d   0x12  Code  Gb  os_q.o [1]
OS_RdyListInit          0x0000165d   0x24  Code  Gb  os_core.o [1]
OS_RdyListInsert        0x00001685   0x28  Code  Gb  os_core.o [1]
OS_RdyListInsertHead    0x000016ad   0x3a  Code  Gb  os_core.o [1]
OS_RdyListInsertTail    0x000016e7   0x38  Code  Gb  os_core.o [1]
OS_RdyListRemove        0x0000171f   0x5c  Code  Gb  os_core.o [1]
OS_RecTaskInitTCB       0x00000d6d   0x6c  Code  Gb  os_task.o [1]
OS_SchedLockTimeMeasStart
                        0x0000177b   0x14  Code  Gb  os_core.o [1]
OS_SchedLockTimeMeasStop
                        0x0000178f   0x2e  Code  Gb  os_core.o [1]
OS_TaskBlock            0x0000181d   0x3a  Code  Gb  os_core.o [1]
OS_TaskDbgListAdd       0x000008e9   0x34  Code  Gb  os_task.o [1]
OS_TaskDbgListRemove    0x0000091d   0x4c  Code  Gb  os_task.o [1]
OS_TaskInit             0x0000096d   0x1e  Code  Gb  os_task.o [1]
OS_TaskInitTCB          0x0000098b   0xaa  Code  Gb  os_task.o [1]
OS_TaskRdy              0x00001857   0x1a  Code  Gb  os_core.o [1]
OS_TaskReturn           0x00000a35   0x16  Code  Gb  os_task.o [1]
OS_TaskSemPost          0x00000a59   0xd6  Code  Gb  os_task.o [1]
OS_TickListInit         0x00001d29   0x2a  Code  Gb  os_tick.o [1]
OS_TickListInsert       0x00001d53  0x11c  Code  Gb  os_tick.o [1]
OS_TickListRemove       0x00001e6f   0x42  Code  Gb  os_tick.o [1]
OS_TickListUpdate       0x00001eb1  0x1a0  Code  Gb  os_tick.o [1]
OS_TickTask             0x00001c8d   0x28  Code  Gb  os_tick.o [1]
OS_TickTaskInit         0x00001cb5   0x74  Code  Gb  os_tick.o [1]
OS_TmrInit              0x00002169   0xda  Code  Gb  os_tmr.o [1]
OS_TmrLink              0x00002243   0xd0  Code  Gb  os_tmr.o [1]
OS_TmrTask              0x00002361   0xaa  Code  Gb  os_tmr.o [1]
OS_TmrUnlink            0x00002313   0x4c  Code  Gb  os_tmr.o [1]
PWMGenConfigure         0x000039f5   0x28  Code  Gb  pwm.o [1]
PWMGenEnable            0x00003a31    0xa  Code  Gb  pwm.o [1]
PWMGenPeriodSet         0x00003a1d   0x14  Code  Gb  pwm.o [1]
PWMOutputState          0x00003a61   0x16  Code  Gb  pwm.o [1]
PWMPulseWidthSet        0x00003a3b   0x26  Code  Gb  pwm.o [1]
Region$$Table$$Base     0x00003f7c          --   Gb  - Linker created -
Region$$Table$$Limit    0x00003fa0          --   Gb  - Linker created -
Right_tgt               0x200020cf    0x1  Data  Gb  app.o [1]
SysCtlClockGet          0x00002b17  0x200  Code  Gb  sysctl.o [1]
SysCtlClockSet          0x000029b5  0x162  Code  Gb  sysctl.o [1]
SysCtlDelay             0x000029ad    0x8  Code  Gb  sysctl.o [1]
SysCtlPWMClockSet       0x00002d17   0x10  Code  Gb  sysctl.o [1]
SysCtlPeripheralEnable  0x00002985   0x26  Code  Gb  sysctl.o [1]
SysCtlPeripheralReset   0x00002925   0x60  Code  Gb  sysctl.o [1]
__aeabi_memclr4         0x000020b1         Code  Gb  ABImemclr4.o [5]
__cmain                 0x00003fc1         Code  Gb  cmain.o [5]
__exit                  0x00003ff1   0x14  Code  Gb  exit.o [6]
__iar_Memset4_word      0x000028f1         Code  Gb  ABImemset48.o [5]
__iar_Memset8_word      0x000028f1         Code  Gb  ABImemset48.o [5]
__iar_copy_init3        0x00001abf   0x2e  Code  Gb  copy_init3.o [5]
__iar_data_init3        0x00003f55   0x28  Code  Gb  data_init.o [5]
__iar_program_start     0x000040c5         Code  Gb  cstartup_M.o [5]
__iar_unaligned___aeabi_memcpy4
                        0x000020d9         Code  Gb  ABImemcpy_unaligned.o [5]
__iar_unaligned___aeabi_memcpy8
                        0x000020d9         Code  Gb  ABImemcpy_unaligned.o [5]
__iar_zero_init3        0x000020b7   0x22  Code  Gb  zero_init3.o [5]
__low_level_init        0x00003fdb    0x4  Code  Gb  low_level_init.o [3]
__vector_table          0x00000000  0x11c  Data  Gb  app_vect.o [1]
_call_main              0x00003fcd         Code  Gb  cmain.o [5]
_exit                   0x00003fe5         Code  Gb  cexit.o [5]
_main                   0x00003fd7         Code  Gb  cmain.o [5]
avl_balance             0x00000299   0x18  Code  Gb  os_task.o [1]
avl_balance_factor      0x000001c9   0x26  Code  Gb  os_task.o [1]
avl_balance_node        0x0000022f   0x6a  Code  Gb  os_task.o [1]
avl_create              0x0000011d   0x44  Code  Gb  os_task.o [1]
avl_create_node         0x00000161   0x34  Code  Gb  os_task.o [1]
avl_delete              0x000003b5  0x1b2  Code  Gb  os_task.o [1]
avl_find                0x0000032f   0x20  Code  Gb  os_task.o [1]
avl_insert              0x000002b1   0x7e  Code  Gb  os_task.o [1]
avl_node_height         0x00000195   0x34  Code  Gb  os_task.o [1]
avl_rotate_leftleft     0x000001ef    0xc  Code  Gb  os_task.o [1]
avl_rotate_leftright    0x000001fb   0x14  Code  Gb  os_task.o [1]
avl_rotate_rightleft    0x0000020f   0x14  Code  Gb  os_task.o [1]
avl_rotate_rightright   0x00000223    0xc  Code  Gb  os_task.o [1]
err                     0x200020c4    0x2  Data  Gb  os_task.o [1]
exit                    0x00003fdf    0x4  Code  Gb  exit.o [3]
g_pucRITInit            0x00003ddc   0x50  Data  Lc  bsp_display.o [1]
g_pucRow1               0x000040d0    0x8  Data  Lc  bsp_display.o [1]
g_pucRow2               0x000040d8    0x8  Data  Lc  bsp_display.o [1]
g_pulGPIOBaseAddrs      0x00003e2c   0x48  Data  Lc  gpio.o [1]
g_pulRCGCRegs           0x000040ac    0xc  Data  Lc  sysctl.o [1]
g_pulSRCRRegs           0x000040a0    0xc  Data  Lc  sysctl.o [1]
g_pulXtals              0x00003d80   0x5c  Data  Lc  sysctl.o [1]
g_ulDelay               0x2000204c    0x4  Data  Lc  bsp_display.o [1]
isFirst                 0x20000000    0x1  Data  Gb  os_task.o [1]
leftLEDBlink            0x00003ba1   0x3c  Code  Lc  app.o [1]
leftLEDBlinkStk         0x20000b64  0x200  Data  Lc  app.o [1]
leftLEDBlinkTCB         0x20001bf8   0x8c  Data  Lc  app.o [1]
main                    0x00003a79   0x4c  Code  Gb  app.o [1]
ready_list_insert       0x0000034f   0x1a  Code  Gb  os_task.o [1]
rightLEDBlink           0x00003bdd   0x30  Code  Lc  app.o [1]
rightLEDBlinkStk        0x20000d64  0x200  Data  Lc  app.o [1]
rightLEDBlinkTCB        0x20001c84   0x8c  Data  Lc  app.o [1]
tree                    0x20002074    0x4  Data  Gb  os_task.o [1]
tree_1                  0x20002070    0x4  Data  Gb  os_task.o [1]
tree_find               0x00000369   0x10  Code  Gb  os_task.o [1]
update_node             0x00000379   0x3c  Code  Gb  os_task.o [1]


[1] = D:\NTU\Sem 2\Embedded OS\TEST\ce4053_source_code\ce4053\Micrium\Software\EvalBoards\TI\LM3S9B92-EVALBOT\IAR\uCOS-III-CE4053_PG\Flash\Obj
[2] = command line
[3] = dl7M_tlf.a
[4] = m7M_tl.a
[5] = rt7M_tl.a
[6] = shb_l.a

  15 578 bytes of readonly  code memory
   1 222 bytes of readonly  data memory
   9 429 bytes of readwrite data memory

Errors: none
Warnings: none
